:100000000C9424010C9441010C9441010C94410185
:100010000C9441010C9441010C9441010C94410158
:100020000C9441010C9441010C9441010C94410148
:100030000C9441010C9441010C9441010C94410138
:100040000C9441010C9441010C9441010C94410128
:100050000C9441010C9441010C9441010C94410118
:100060000C9441010C944101000000000000005F6D
:1000700000000007000700147F147F14242E7B2A41
:10008000122313086462364956205000040301000D
:10009000001C2241000041221C0022147F1422086F
:1000A000087F0808403010000008080808080060B1
:1000B00060000020100804023E5149453E00427F86
:1000C000400062514949462141494D331814127F7D
:1000D0001027454545393C4A494931017109050315
:1000E0003649494936464949291E0036360000023C
:1000F0007C424200081422410014141414140041DC
:1001000022140802015905023E415D555E7C121120
:10011000127C7F494949363E414141227F4141415C
:100120003E7F494949417F090909013E41515172C8
:100130007F0808087F00417F41002040413F017F48
:10014000081422417F404040407F020C027F7F0420
:1001500008107F3E4141413E7F090909063E415159
:10016000215E7F09192946264949493201017F014B
:10017000013F4040403F1F2040201F7F2018207F2C
:100180006314081463030478040361514945437FF1
:100190007F41410002040810200041417F7F04029A
:1001A0007F0204081C2A0808000001020424545499
:1001B00038407F284444383844444408384444286C
:1001C0007F3854545408087E09090298A4A4A478DE
:1001D0007F08040478000079000000808879007F9F
:1001E0001028444000417F40007804780478047867
:1001F0000404783844444438FC2424241818242463
:1002000024FC04780404084854545424043F44440F
:10021000243C40403C401C2040201C3C403C403C96
:1002200044281028449CA0A0907C4464544C44086A
:100230003641000000007700000000413608080445
:10024000081008552A552A5511241FBECFEFD8E0B3
:10025000DEBFCDBF11E0A0E0B1E0ECE7F7E302C004
:1002600005900D92A43BB107D9F723E0A4EBB1E0D0
:1002700001C01D92AB3EB207E1F70E942A170C9411
:10028000BC1B0C94000081110CC00E94A918823084
:1002900051F0882351F08AE291E00E94711B81E0C5
:1002A000089581E0089582E0089580E0089591E046
:1002B000811101C090E0892F0895CF92DF92EF92D3
:1002C000FF920F9369017A01811102C0011105C0EB
:1002D00085E30E94691B84E014C0013039F4AB014E
:1002E000C701B6010E947119982F07C0202FAB01DA
:1002F000C701B6010E949A19982F81E0911101C09F
:1003000080E00F91FF90EF90DF90CF9008950F93D2
:10031000FB01811114C00023A1F0CA01B901AF0192
:10032000013021F40E94D719982F04C0202F0E9479
:100330003E1A982F81E0911105C080E003C084E04F
:1003400001C084E00F910895CF93DF9381111EC007
:10035000EA01613099F018F06430D0F409C02A98AD
:100360000E94371A91E0811101C090E02A9A11C0D1
:1003700080E092E09983888390E00BC00E94D41AB9
:10038000688379838A839B8390E003C094E001C0F3
:1003900094E0892FDF91CF91089565ED7FEB81E4A3
:1003A00094E708954115510551F0A62FB72FFC0190
:1003B000480F591F9D919193E417F507D9F70895B8
:1003C000CF92DF92EF92FF920F931F93CF93DF9321
:1003D0008B01FB013996DC011E964D915D916D916B
:1003E0007C915197452B462B472B09F475C05296AB
:1003F0000D90BC91A02D8C918032C1F09D012F5F9A
:100400003F4FA8014F5E5F4F95EE05C0E90189910E
:100410009E01803269F0853009F4892F3196EF0111
:1004200021978883E417F50789F703C0AF0101C05E
:10043000AF0118968C911897803281F08EE2FA0104
:10044000808318968C911897803209F047C03196B6
:1004500006C0FA013496EA018B8301C0FA011B96AB
:100460008C911B97E80188875F968C915F975E96C9
:100470004C915E9750E060E070E0BA015527442748
:10048000782B5C968C915C97482B5D96CC905D9711
:10049000D12CDC2CCC24E12CF12C4C295D296E29AB
:1004A0007F29488359836A837B8359968C91599716
:1004B00090E0982F882758962C915897822B9D83EF
:1004C0008C8357968C91579790E0982F8827569653
:1004D0002C91822B9F838E83108213C0FA01329657
:1004E000EA01898319968C911997803209F4B7CF64
:1004F00031968A831A968C911A97803209F0A9CF87
:10050000AECFDF91CF911F910F91FF90EF90DF90D1
:10051000CF9008954F925F926F927F92AF92BF9269
:10052000CF92DF92EF92FF920F931F93CF93DF93BF
:10053000FC01C2A4D3A4E4A4F5A4C416D506E6061F
:10054000F70609F44FC02A013B01EC01848188239E
:10055000A1F15F01FEE2AF0EB11C01E0A70196011F
:10056000B50189810E94870181113EC01C824E899C
:100570005F89688D798D8E8D9F8DA8A1B9A1840F1B
:10058000951FA61FB71FC816D906EA06FB06A8F4D2
:100590001B81123090F08E899F89A88DB98DC80E6D
:1005A000D91EEA1EFB1E01E0A7019601B501898153
:1005B0000E9487011150113071F7411451046104F8
:1005C0007104A1F001E0A3019201BE01625D7F4FC1
:1005D00089810E945D0181110BC04AA65BA66CA6B1
:1005E0007DA607C080E005C081E003C080E001C0B7
:1005F00081E0DF91CF911F910F91FF90EF90DF90FD
:10060000CF90BF90AF907F906F905F904F90089584
:100610000F93CF93DF93EC019A01AB01BC01625DB4
:100620007F4F01E089810E945D01811151C0FE016F
:10063000E35DFD4F808190E0982F882731972081DE
:10064000822B85359A4A09F045C0E55CF14020814E
:100650003197808190E0A0E0B0E0DC019927882705
:10066000B22B32972081822B3196408150E0542F5B
:10067000442760E070E0842B952BA62BB72BBB277B
:1006800086349144A445B10539F17E968081319735
:10069000408150E060E070E0BA0155274427782B94
:1006A00032978081482BCF57DF4F888190E0982F79
:1006B0008827A0E0B0E0482B592B6A2B7B2B7727AB
:1006C00081E0463451446445710539F480E005C049
:1006D00083E003C082E001C080E0DF91CF910F9101
:1006E0000895009781F0FC012081222371F026817A
:1006F00037812617370759F481810E94570180FD01
:1007000008C080E0089589E0089589E0089589E0AF
:10071000089583E008950F93CF93DF93EC0140E0B9
:1007200050E0BA010E948A02982F81115AC0888134
:10073000833009F04CC08D81882309F448C01AA683
:100740001BA61CA61DA6BE01625D7F4FFB01CE014C
:10075000825D9D4F1192E817F907E1F785E5FE01EB
:10076000E45DFD4F80838AEA3196808382E58EA71F
:100770008FA781E688AB91E499AB22E77B97208332
:100780003196208331969083319680833E852F85E4
:100790009889898931963083319620833196908368
:1007A000319680833A852B859C858D853196308363
:1007B0003196208331969083319680832A893B89B4
:1007C0004C895D8901E089810E9487011D8240E09A
:1007D00050E060E089810E94A40191E0811101C094
:1007E00090E0892FDF91CF910F9108954F925F9202
:1007F0006F927F92AF92BF92CF92DF92EF92FF9271
:100800001F93CF93DF93EC016A017B0142305105C6
:100810006105710508F4B2C08A8D9B8DAC8DBD8DCC
:10082000481759076A077B0708F0ADC04E8C5F8CEC
:1008300068A079A08881823009F449C0833009F426
:1008400065C0813009F0A4C05A01B694A794A40EE3
:10085000B51EC501892F99278695B301A201480FBE
:10086000591F611D711DCE010E948A02811194C021
:10087000F501F170EC0FFD1F16A58FEFA81AB80A4D
:10088000C501892F99278695B301A201480F591FE9
:10089000611D711DCE010E948A02811181C081E01B
:1008A000B822FE01EA0DFB1D86A5612F70E0782BB2
:1008B000C0FE09C0729562956F7067277F706727C9
:1008C00080E090E078C07F7080E090E074C0452FB9
:1008D000562F672F7727440D551D661D771DCE01B6
:1008E0000E948A02811160C0CC0CDD1CE894C0F823
:1008F00081E0D822FE01EC0DFD1D67A570E0762F8A
:10090000662786A5682B80E090E055C0689416F8AD
:1009100076956795579547951694D1F7440D551DD3
:10092000661D771DCE010E948A02811141C0CC0C48
:10093000DD1CCC0CDD1C8CEFC82281E0D822FE012E
:10094000EC0DFD1D21A960A9862F90E0A0E0B0E08C
:10095000DC0199278827B22B26A5AC01BD01422BCB
:1009600087A590E0982F8827A0E0B0E0842B952BF6
:10097000A62BB72BBC01CD019F701DC061E070E0BC
:1009800080E090E018C061E070E080E090E013C08B
:100990006FEF7FEFCB010FC06FEF7FEFCB010BC08D
:1009A0006FEF7FEFCB0107C06FEF7FEFCB0103C08D
:1009B0006FEF7FEFCB01DF91CF911F91FF90EF9011
:1009C000DF90CF90BF90AF907F906F905F904F90EF
:1009D00008952F923F924F925F926F927F928F92E3
:1009E0009F92AF92BF92CF92DF92EF92FF920F93BE
:1009F0001F93CF93DF93EC016A017B0148015901FA
:100A0000423051056105710508F4B6C08A8D9B8D91
:100A1000AC8DBD8D481759076A077B0708F0AEC03B
:100A20004E8C5F8C68A079A08881823009F460C008
:100A3000833009F477C0813009F096C08A01169599
:100A400007951801240E351EC101892F9927869517
:100A5000B301A201480F591F611D711DCE010E94F3
:100A60008A02182F811185C0C1019170C0FE22C079
:100A7000FE01E80FF91F86A5282F2F7030E1839E15
:100A8000C0011124822B86A771018FEFE81AF80AA2
:100A900081E08C83C701892F99278695B301A20134
:100AA000480F591F611D711DCE010E948A028111DC
:100AB0005DC066C0FE01E80FF91F86A671013FEF19
:100AC000E31AF30A81E08C83C701892F9927869561
:100AD000B301A201480F591F611D711DCE010E9473
:100AE0008A02811145C057C0EC0FFD1F86A641C088
:100AF000452F562F672F7727440D551D661D771DEF
:100B0000CE010E948A02182F811133C0CC0CDD1C4B
:100B1000E894C0F881E0D822FE01EC0DFD1D86A608
:100B200097A627C0689416F87695679557954795C8
:100B30001694D1F7440D551D661D771DCE010E94F8
:100B40008A02182F811115C0CC0CDD1CCC0CDD1CC9
:100B50003CEFC32231E0D322FE01EC0DFD1D86A641
:100B600097A6A0AAB1AA05C012E003C0182F01C021
:100B7000182F81E08C831CC012E01AC012E018C04C
:100B8000F701F170689413F8B694A794979487943A
:100B90001694D1F7A9CFF701F170DE01AE0FBF1F98
:100BA0009E969C91907F892D8F70892E882A9CCF4C
:100BB000812FDF91CF911F910F91FF90EF90DF90E8
:100BC000CF90BF90AF909F908F907F906F905F90ED
:100BD0004F903F902F9008952F923F924F925F92A7
:100BE0006F927F928F929F92AF92BF92CF92DF923D
:100BF000EF92FF920F931F93CF93DF9300D000D01B
:100C000000D0CDB7DEB79E838D8349835A836B8333
:100C10007C83DC015A964D905D906D907C905D9741
:100C2000452B462B472BA9F41A968D909D90AD909D
:100C3000BC901D9781149104A104B10429F184147E
:100C40009504A604B70420F1812C912C54018394BF
:100C50001FC049815A816B817C818D819E810E9458
:100C6000F6036B017C01623071058105910508F482
:100C700095C0641575058605970508F494C08980AC
:100C80009A80AB80BC8004C0812C912C5401839449
:100C90007501640112E000E0312C212CEFEFCE1A37
:100CA000DE0AEE0AFE0AC414D504E604F70458F07E
:100CB000F2E08F169104A104B10408F478C0C12EAB
:100CC000D02EE32CF22CB701A6018D819E810E94CB
:100CD000F603611571058105910599F06F3F2FEFBE
:100CE00072078207920709F467C0613071058105B8
:100CF000910509F466C0C814D904EA04FB0471F62E
:100D000065C08C2C9D2CAE2CBF2C0FEF1FEF2FEF4E
:100D10003FE0B701A6018D819E810E94E904811107
:100D20005AC089819A81AB81BC810097A105B10528
:100D300061F00C2D1D2D2E2D3F2DAC01BD018D819F
:100D40009E810E94E90481114BC0AD81BE811A963B
:100D50008C921A971B969C921B971C96AC921C9790
:100D60001D96BC921D97FD0186859785A089B18946
:100D70008F3FFFEF9F07AF07BF0759F00197A1090A
:100D8000B109ED81FE8186879787A08BB18B81E0C9
:100D900085836C2D7D2D8E2D9F2D26C061E070E00A
:100DA00080E090E021C07D2D8E2D9F2D1DC060E044
:100DB00070E080E090E018C06FEF7FEF8FEF9FEF63
:100DC00013C061E070E080E090E00EC060E070E091
:100DD00080E090E009C06FEF7FEF8FEF9FEF04C0DE
:100DE0006FEF7FEF8FEF9FEF26960FB6F894DEBF81
:100DF0000FBECDBFDF91CF911F910F91FF90EF906C
:100E0000DF90CF90BF90AF909F908F907F906F902A
:100E10005F904F903F902F9008957F928F929F9276
:100E2000AF92BF92CF92DF92EF92FF920F931F93F8
:100E3000CF93DF93EC016A017B01423051056105DC
:100E4000710508F44DC08A8D9B8DAC8DBD8D481702
:100E500059076A077B0708F045C07724739435C0AB
:100E6000B701A601CE010E94F6034B015C01672B7E
:100E7000682B692BC9F181E088169104A104B104A3
:100E8000A9F12FEF82169206A206B20689F100E0C0
:100E900010E09801B701A601CE010E94E90481117A
:100EA00028C08E859F85A889B9898F3F2FEF92072B
:100EB000A207B20741F00196A11DB11D8E879F8741
:100EC000A88BB98B7D82750164018A8D9B8DAC8D59
:100ED000BD8DC816D906EA06FB0610F280E009C0EF
:100EE00082E007C082E005C080E003C082E001C06C
:100EF00081E0DF91CF911F910F91FF90EF90DF90F4
:100F0000CF90BF90AF909F908F907F900895CF9299
:100F1000DF92EF92FF92FC019A01AB01225031095E
:100F200041095109C28CD38CE48CF58C82E0C81A3B
:100F3000D108E108F1082C153D054E055F0568F460
:100F4000A281B0E00E94B11BC6A0D7A0E0A4F1A48A
:100F50006C0D7D1D8E1D9F1D03C060E070E0CB01F8
:100F6000FF90EF90DF90CF900895EF92FF920F9354
:100F70001F93CF93DF93EC018B017D836C834E81B4
:100F80005F8168857985413051056105710509F4F6
:100F900093C0E881F981828D938DA48DB58D48171A
:100FA00059076A077B0708F089C04115510561059B
:100FB000710551F58081833049F442A153A164A1A8
:100FC00075A14115510561057105F1F41A861B865D
:100FD0001C861D86808591850817190708F070C04A
:100FE00082A193A1A4A1B5A19801329522952F7059
:100FF00023273F702327820F931FA11DB11D8E87CA
:101000009F87A88BB98B44C0E28080E1E89E700185
:1010100011240E151F0518F1888199810E94F6038D
:10102000AB01BC014F3F8FEF58076807780709F401
:1010300049C0423051056105710508F445C0E88199
:10104000F981828D938DA48DB58D481759076A0754
:101050007B07E0F50E191F090E151F05E8F64A87F4
:101060005B876C877D87888199810E9487079801BB
:10107000329522952F7023273F702327DC01CB0167
:10108000820F931FA11DB11D8E879F87A88BB98BDF
:101090000F701127000F111F02951295107F102756
:1010A000007F1027025D1F4F88819981080F191F4B
:1010B0001B8B0A8B80E00BC082E009C082E007C076
:1010C00082E005C081E003C082E001C082E0DF91E0
:1010D000CF911F910F91FF90EF9008954F925F92E3
:1010E0006F927F928F929F92AF92BF92CF92DF9238
:1010F000FF920F931F93CF93DF93DC011496CD9152
:10110000DC911597219609F408C11E968D909D904B
:10111000AD90BC90519781149104A104B10409F4DD
:10112000FEC0F62E8C016E01BFE0CB22DD24C1147F
:10113000D10409F0D6C0EFEF8E1A9E0AAE0ABE0A9D
:10114000DC011E968D929D92AD92BC9251971A969B
:101150004D915D916D917C911D97411551056105F2
:10116000710549F4ED91FC9180859185C817D907E7
:1011700008F0D7C0B6C0DC01ED91FC91228130E0CF
:1011800021503109CE01929582958F7089279F70E9
:10119000892728233923232B09F0A3C0CF010E94DC
:1011A000F6032B013C01623071058105910508F4BD
:1011B000BAC06F3F7F4F8F4F9F4F09F4B6C0D80121
:1011C000ED91FC91828D938DA48DB58D48165906B5
:1011D0006A067B0608F473C0FF2009F4A8C0D80192
:1011E0001A964D915D916D917C911D97CF010E9452
:1011F000EC052B013C01611571058105910509F490
:1012000098C0613071058105910509F494C06F3F64
:101210007F4F8F4F9F4F09F490C040E050E0BA01DC
:10122000D8018D919C910E948A02811188C0F80199
:1012300080819181FC01BE96825D9D4F1192E817DD
:10124000F907E1F7D801AD90BC90B301A201C50147
:101250000E948707F50162A773A784A795A7F12CC1
:10126000BB24B3941AC0B48240E050E0BA01D80164
:101270008D919C910E948A02811163C0D801ED91E9
:10128000FC9182A593A5A4A5B5A50196A11DB11DAC
:1012900082A793A7A4A7B5A7F394D801ED91FC91D9
:1012A0008281F81600F382A593A5A4A5B5A58F1990
:1012B0009109A109B10982A793A7A4A7B5A7F8012D
:1012C0004286538664867586B301A201808191812E
:1012D0000E948707D8011E966D937D938D939C93F2
:1012E0005197F801D583C483CC0CDD1CCC0CDD1CDC
:1012F000CC0CDD1CCC0CDD1CCC0CDD1CFEE2CF0EBE
:10130000D11CD8018D919C911197C80ED91E53966E
:10131000DC92CE92529780E015C084E013C084E046
:1013200011C084E00FC082E00DC081E00BC084E0FA
:1013300009C087E007C082E005C081E003C081E00A
:1013400001C081E0DF91CF911F910F91FF90DF905D
:10135000CF90BF90AF909F908F907F906F905F9055
:101360004F9008952F923F924F925F926F927F928B
:101370008F929F92AF92BF92CF92DF92EF92FF92A5
:101380000F931F93CF93DF9300D000D0CDB7DEB77C
:101390006C017B01DB018C91803231F4FB013196D1
:1013A0007F0181918032E1F38F3211F08C3519F495
:1013B000BFEFEB1AFB0AF601168217821086118620
:1013C000D7018C91803248F460E070E0C6010E9441
:1013D000B507F601138A128A5FC110E2B12C812C85
:1013E0006894772473F8612CA12C79826A820F2E7D
:1013F000FBE02F2EF02D0F2EFCE34F2EF1E05F2EA1
:10140000F02D0F2EF5E03F2EF02DDC82CB82AB814C
:10141000BC815496ED91FC915597DF01CF010B965D
:101420002B813C811D93A817B907E1F73C832B83DF
:101430002B2D382D8B2D982D472D562D9A2C6C0148
:101440007FEFC71AD70AD701A80FB91F0C91013235
:1014500008F40AC10F3209F403C10C3509F400C1C4
:101460000E3209F4E5C0241735070CF0D1C008C0CE
:10147000990C990CC60129813A81422D50E0DFCFA9
:1014800000230CF0E1C0A92DA3609A2EDDC00296C6
:10149000D701AC0DBD1DDC9060EC6D0D6F3328F0F5
:1014A00060E86D0D6F3708F0B5C0BA016150710981
:1014B000261737070CF0B0C0DF01A20FB31F0C9343
:1014C000D9011196AE0FBF1F2E5F3F4FDC92B7CFF1
:1014D0008D91882309F4BEC090E068177907C1F7A1
:1014E00086E0DAC0B92DB2609B2E08C08FE9800F6C
:1014F0008A3120F4692D6160962E0052DF01A20F1F
:10150000B31F0C932F5F3F4FC60199CF232B09F4D4
:1015100085C09081953E09F430824830510511F420
:10152000990C990C992D9370913009F48061992D43
:101530009C70943009F4886083876B2D782D8B81A3
:101540009C810E94B507811193C0AB81BC811E961E
:101550004D915D916D917C9151978D919C910E94DF
:101560008A02811188C0EB81FC8162897389DB0169
:101570009C919923F1F01B969C9193FD10C0C48817
:10158000D588FB01D601AB01455F5F4F04C0E4176E
:10159000F50709F47CC021919D912917C1F36A2DAB
:1015A0008B819C810E946E08882379F2CB80DC803D
:1015B00064C0CB80DC80D6015496ED91FC915597A8
:1015C0009385947091112CC085E066C0FB018385E2
:1015D00084FF28C0858990E0982F88272489822B52
:1015E000A0E0B0E0DC0199278827438D50E0542F1C
:1015F0004427228D422B60E070E0842B952BA62B94
:10160000B72BEB81FC8186839783A087B187FFCEC0
:1016100086E042C086E040C086E03EC086E03CC036
:1016200084E03AC085E038C086E036C086E034C049
:101630004830510509F41CCFF7CF602F70E06032BD
:101640007105A1F3D20144CF6FE7600F6E3708F444
:101650001ECFF3CF8FEB800F8A3108F443CF46CFF4
:10166000EC0CFD1C8A2D52CFEC0CFD1C84E04ECFFF
:10167000CB80DC8002C0CB80DC80D6015496ED911B
:10168000FC91559793859470843031F49BCFD601AB
:101690001B969C9192FF9ACF0F900F900F900F90F6
:1016A000DF91CF911F910F91FF90EF90DF90CF903E
:1016B000BF90AF909F908F907F906F905F904F9072
:1016C0003F902F900895EF92FF920F931F93CF9327
:1016D0008C0160E070E00E94B507C82F811151C0F5
:1016E000D8011E964D915D916D917C9151978D9190
:1016F0009C910E948A02C82F811143C0D801529642
:10170000ED91FC9153978081853E69F1882359F1D1
:1017100061E0C8010E946E08C82F882309F331C018
:10172000F801E288F388F7019701205E3F4F11929C
:10173000E217F307E1F7D80154966D917C91559724
:101740004BE050E0C7010E94D201D8015496ED91C0
:10175000FC91559783858871F7018487ED91FC9101
:1017600081E084830EC0D8011E964D915D916D91EC
:101770007C9151978D919C910E948A02C82F882359
:1017800079F28C2FCF911F910F91FF90EF900895D8
:101790002F923F924F925F926F927F928F929F9281
:1017A000AF92BF92CF92DF92EF92FF920F931F936F
:1017B000CF93DF93CDB7DEB727970FB6F894DEBF90
:1017C0000FBECDBFDC01ED91FC911197208130E07F
:1017D000205331092A30310548F451815A3331F40C
:1017E0003296ED93FC93232B09F036C2E091B601BB
:1017F000F091B701FF83EE83DB01ED93FC9330970B
:1018000009F42CC2142F8081882361F081810E9409
:10181000570180FD07C0112309F422C282FF22C2B2
:101820008AE0CFC2EE81FF811082118280E00E94A7
:10183000430180FD19C2112311F082FD17C240E05F
:1018400050E0BA018E819F810E9408038130C1F56A
:10185000EE81FF81E051FE4F8081882309F408C2A8
:10186000EE81FF81E950FE4F8081EE81FF81EA50D9
:10187000FE4FC080D12CE12CF12C7601DD24CC244C
:10188000F82AEE81FF81EC50FE4F8081A70196017E
:10189000282BDA01C901EE81FF81EB50FE4FC08099
:1018A000D12CDC2CCC24E12CF12CC82AD92AEA2A10
:1018B000FB2AB701A6018E819F810E94080303C005
:1018C000C12CD12C7601833009F4D4C18111D4C14B
:1018D000AE81BF81DA968C91DA9790E0982F8827B5
:1018E000D9962C91822B8115924009F0C7C1EE81C7
:1018F000FF81EB5BFF4F208130E0322F2227EE810A
:10190000FF81EC5BFF4F8081282B40E050E02115E8
:1019100031054105510541F5EE81FF81EB5AFF4F3D
:101920008081EE81FF81EC5AFF4F2081422F50E0F1
:1019300060E070E0BA0155274427782BEE81FF81E3
:10194000EE5AFF4F8081482BEE81FF81ED5AFF4F09
:10195000808190E0982F8827A0E0B0E09A01AB0149
:10196000282B392B4A2B5B2BEE81FF81268B378B63
:10197000408F518FA6ADA383B0E00E94B11B2B0115
:101980003C0105AD10E0102F002784AD082B20E0AE
:1019900030E046015701800E911EA21EB31E868EB6
:1019A000978EA0A2B1A2B3ADBD83B283E05CFF4F1E
:1019B000808190E0982F8827AE81BF81DF964C917F
:1019C000DF971C01242A19963C922E921897FD014C
:1019D000EE5BFF4F808190E0582F44273197808144
:1019E000482B60E070E04115510561057105F1F487
:1019F000709690813197408150E060E070E0BA01CC
:101A000055274427792B3297E081DB01CA018E2BC1
:101A1000EE81FF81E15BFF4F408150E0542F44276E
:101A200060E070E0482B592B6A2B7B2B369427946F
:101A3000369427943694279436942794C101A0E0D5
:101A4000B0E089839A83AB83BC83DB01CA01801B2E
:101A5000910BA20BB30B84199509A609B709BC0118
:101A6000CD0129813A814B815C81621B730B840B10
:101A7000950BAD812A2F30E040E050E00E94801BA2
:101A8000BA01A9014E5F5F4F6F4F7F4FEE81FF811B
:101A9000428F538F648F758F473FFFE05F0761056B
:101AA000710508F417C182E016C1EE81FF81E35D84
:101AB000FD4F808190E0982F8827EE81FF81E45DC3
:101AC000FD4F2081822B85359A4A09F0ABC0AE814B
:101AD000BF81D1962C91D197D0968C9190E0A0E0C7
:101AE000B0E0DC0199278827B22BEE81FF8126A583
:101AF000AC01BD01422B27A530E0922F8827A0E042
:101B0000B0E0842B952BA62BB72B82359245A146AE
:101B1000B14409F089C0EE81FF81EB5EFD4F208169
:101B2000EE81FF81EC5EFD4F808190E0A0E0B0E0AF
:101B3000DC0199278827B22BEE81FF81EE5EFD4FF5
:101B40002081AC01BD01422BEE81FF81ED5EFD4F96
:101B5000208130E0922F8827A0E0B0E0842B952BE5
:101B6000A62BB72B82379247A144B14609F05EC03D
:101B7000EE81FF81E35EFD4F2081EE81FF81E45E17
:101B8000FD4F808190E0A0E0B0E0DC01992788273C
:101B9000B22BEE81FF81E65EFD4F2081AC01BD01DD
:101BA000422BEE81FF81E55EFD4F208130E0922FD8
:101BB0008827A0E0B0E0842B952BA62BB72BEE81D5
:101BC000FF8182879387A487B587E75EFD4F2081D9
:101BD000EE81FF81E85EFD4F808190E0A0E0B0E003
:101BE000DC0199278827B22BEE81FF81EA5EFD4F49
:101BF0002081AC01BD01422BEE81FF81E95EFD4FEA
:101C0000208130E0922F8827A0E0B0E0842B952B34
:101C1000A62BB72BEE81FF8186879787A08BB18B90
:101C200083E005C083E003C083E001C083E0AE81B0
:101C3000BF818C93FD0112A613A614A615A6809150
:101C4000B4019091B50101969093B5018093B401D0
:101C50009783868380E0B5C08BE0B3C08CE0B1C0D1
:101C600080E0AFC080E0ADC083E0ABC08AE0A9C037
:101C70008DE0A7C081E0A5C08DE0A3C08DE0A1C02C
:101C8000B301A201480D591D6A1D7B1DAE81BF81A4
:101C900092964D935D936D937C93959729813A81AC
:101CA0004B815C81820E931EA41EB51E480C591CEC
:101CB0006A1C7B1C96964D925D926D927C929997D0
:101CC0004FEF5FEFBA01FD0146875787608B718B3D
:101CD0001482ADCF81E0473F5F4F6105710580F20F
:101CE000EE81FF81E35AFF4F8081EE81FF81E45A4C
:101CF000FF4F408150E060E070E0BA015527442773
:101D0000782BEE81FF81E65AFF4F8081482BEE81D0
:101D1000FF81E55AFF4F808190E0982F8827A0E04F
:101D2000B0E0482B592B6A2B7B2BAE81BF8192965A
:101D30004D935D936D937C93959729813A814B8167
:101D40005C81820E931EA41EB51E480C591C6A1C91
:101D50007B1C96964D925D926D927C9299978FEF37
:101D60009FEFDC01EE81FF8186879787A08BB18B87
:101D700014821582E15AFF4F808190E0982F8827C6
:101D8000EE81FF81E25AFF4F2081822BA70196014D
:101D9000280F391F411D511DAE81BF8152962D93D1
:101DA0003D934D935C93559701E0BD01625D7F4F7C
:101DB00011968C910E945D01882309F476CE83E010
:101DC00036CF27960FB6F894DEBF0FBECDBFDF919A
:101DD000CF911F910F91FF90EF90DF90CF90BF9028
:101DE000AF909F908F907F906F905F904F903F90BB
:101DF0002F900895811112C0E091B601F091B701C2
:101E0000309709F010826115710511F0FB01108205
:101E10007093B7016093B60180E008958BE0089558
:101E20004F925F926F927F928F929F92AF92BF92EA
:101E3000CF92DF92EF92FF920F931F93CF93DF9396
:101E4000CDB7DEB7A4970FB6F894DEBF0FBECDBFF7
:101E50007C017CA36BA3142FDC011D921C924E719C
:101E6000BE016F5F7F4FCE0183960E94C80B811128
:101E700026C1012F0F71CE0147969E8B8D8B6BA1D2
:101E80007CA146970E94B209982F812F8C7109F48A
:101E900076C0992369F0943009F002C1CE01019611
:101EA0000E94630B81110BC10860CB88DC8855C090
:101EB00012FDF8C0CB88DC88C114D10409F4F4C049
:101EC000F6018385817109F0F1C013FF46C0858852
:101ED000912C982C88248489882AA12CB12CD40197
:101EE00099278827838C912C982C8824228D822AEC
:101EF000A12CB12C882A992AAA2ABB2A148A158ACD
:101F0000128E138E148E158E168E178EE981FA811D
:101F100081E0848342A453A464A475A48114910431
:101F2000A104B10491F0B501A401CF010E940D07F5
:101F30008111C5C0E981FA8181E0881A9108A10860
:101F4000B10882869386A486B586B301A2018981F1
:101F50009A810E948A028111B2C003FF21C0D6017A
:101F60001B961C920E94CD01F60166877787808BB5
:101F7000918BE981FA8181E08483006211C0911123
:101F800097C0CB88DC88C114D10409F493C0D60172
:101F90001B968C9184FD90C011FF02C080FD8EC005
:101FA000E981FA8142A553A564A575A5D7015A9682
:101FB0004D935D936D937C935D978B899C895F9620
:101FC0009C938E935E9714960C93D60155968C91A4
:101FD000559790E0982F882754962C91822BA0E05B
:101FE000B0E05C0199248824D6015B964C915B9704
:101FF00050E0542F44275A962C91422B60E070E019
:10200000482959296A297B29D7011E964D935D934A
:102010006D937C935197D6015F962C915F975E9656
:102020008C9190E0A0E0B0E0DC0199278827AC011A
:10203000BD01722BD6015C962C91DB01CA01822B6B
:102040008C019D01D6015D964C9150E0542F4427A0
:1020500060E070E0402B512B622B732BD7011A9656
:102060004D935D936D937C931D9716961D921D92D3
:102070001D921C9219978FEF15968C931597569673
:102080001D921D921D921C9259971196FC93EE93EE
:102090008681978113969C938E93129780E00FC050
:1020A000892F0DC088E00BC087E009C087E007C01A
:1020B000892F05C084E003C084E001C087E0A496B6
:1020C0000FB6F894DEBF0FBECDBFDF91CF911F9149
:1020D0000F91FF90EF90DF90CF90BF90AF909F90C7
:1020E0008F907F906F905F904F9008952F923F92C6
:1020F0004F925F926F927F928F929F92AF92BF9218
:10210000CF92DF92EF92FF920F93CF93DF9300D0A5
:1021100000D0CDB7DEB79C838B834B016A01590198
:10212000D9011D921C92FC01628173818081918191
:102130000E9471038111CFC1AB81BC8114968C9137
:10214000149788230CF4C4C181FFC4C11A968D91E1
:102150009D910D90BC91A02DAC01BD014C0D5D1D5C
:10216000611D711D481759076A077B0708F493C161
:10217000C114D10409F48FC1EB81FC81B096FA83BC
:10218000E983AB81BC8116964D915D916D917C91F7
:102190001997DB01CA019170AA27BB27892B8A2BCB
:1021A0008B2B09F037C1AB81BC81ED91FC9111976C
:1021B00015969C9115978281981708F450C0452B6D
:1021C000462B472BC1F41E966D917D918D919C916C
:1021D00051976115710581059105F1F440E050E0DA
:1021E000BA01CF010E94EC05EB81FC8166877787FD
:1021F000808B918B0BC0AB81BC8152964D915D91D0
:102200006D917C915597CF010E94EC056115710588
:102210008105910509F43FC1613071058105910582
:1022200039F4EB81FC8184818068848382E053C12E
:102230006F3FFFEF7F078F079F0751F4AB81BC8192
:1022400014968C911497806814968C9381E043C106
:10225000EB81FC81628B738B848B958B1582AB81B8
:10226000BC8114968C91149786FF1FC056962D91B1
:102270003D914D915C915997ED91FC9101E06981FF
:102280007A8181810E948701882339F0EB81FC816A
:1022900084818068848381E01EC1AB81BC811496F7
:1022A0008C9114978F7B14968C93EB81FC8120800A
:1022B00031804289538964897589C1010E948707E9
:1022C000611571058105910551F4AB81BC811496AE
:1022D0008C911497806814968C9382E0FCC0EB81FB
:1022E000FC8145812B013C01440E511C611C711C79
:1022F0007601EF2CFF24E694E114F10409F451C0B7
:10230000D10112965C91252F30E0C701840F911DF9
:102310002817390718F47901E41AF1080E2DA301E2
:102320009201B401F10181810E948701882351F05B
:10233000AB81BC8114968C911497806814968C9311
:1023400081E0C9C0EB81FC8186899789A08DB18D20
:1023500084199509A609B709A70160E070E0841700
:102360009507A607B707A0F4982F8827990FB401FF
:10237000680F791F40E052E089819A810E94D20162
:10238000AB81BC8114968C9114978F7B14968C939F
:10239000EB81FC8185818E0D8583FE2CEE24FF0C64
:1023A0005EC0EB81FC8186899789A08DB18D8415F3
:1023B0009505A605B70501F14681578160857185B0
:1023C00082859385A485B585481759076A077B07D9
:1023D00098F401E0A301920169817A81D1011196FB
:1023E0008C910E945D01882339F0EB81FC8184810E
:1023F0008068848381E06FC0AB81BC8156964D922A
:102400005D926D927C92599715968C9115978F5F7E
:1024100015968C93EB81FC8186819781A085B1858F
:10242000AC01517020E032E0241B350B76012C15F5
:102430003D0508F479019170AA27BB278096A70172
:10244000B4012B813C81820F931F0E94D201AB818A
:10245000BC8114968C911497806414968C938E0C86
:102460009F1CEB81FC8186819781A085B1858E0DB3
:102470009F1DA11DB11D86839783A087B187D501BC
:102480008D919C9111978E0D9F1D8D939C93CE18CD
:10249000DF0809F076CEEB81FC8186819781A085EB
:1024A000B1854285538564857585481759076A0744
:1024B0007B0720F482879387A487B587AB81BC8193
:1024C00014968C911497806214968C9380E003C0CC
:1024D00082E001C087E00F900F900F900F90DF9186
:1024E000CF910F91FF90EF90DF90CF90BF90AF9082
:1024F0009F908F907F906F905F904F903F902F9024
:1025000008950F931F93CF93DF93EC016A817B8132
:10251000888199810E94710381114DC08C8185FF52
:1025200047C086FF12C02E893F89488D598DE881AA
:10253000F98101E0BE01605E7F4F81810E948701C9
:10254000811138C08C818F7B8C834A8D5B8D6C8D23
:102550007D8D888199810E948A0281112CC00E8D07
:102560001F8DF8018385806283878A85848F8B85A0
:10257000858F8C85868F8D85878F8E85828F8F85C1
:10258000838F8889848B8989858B0E94CD01F8018E
:10259000668B778B808F918F8C818F7D8C83E88188
:1025A000F98181E08483888199810E948B0303C033
:1025B00080E001C081E0DF91CF911F910F910895DC
:1025C000CF93DF93EC010E948112811102C0198226
:1025D0001882DF91CF9108952F923F924F925F9290
:1025E0006F927F928F929F92AF92BF92CF92DF9223
:1025F000EF92FF920F931F93CF93DF9300D000D001
:10260000CDB7DEB71C016A017B01DC0112966D912A
:102610007C9113978D919C910E9471038111D0C17F
:10262000F101848188230CF4C8C1428553856485F7
:1026300075854C155D056E057F0520F481FD02C092
:102640006A017B01D10116964D905D906D907C9052
:102650001997F10116821782108611868FEF8583F4
:10266000C114D104E104F10409F438C100811181DD
:10267000D80112968C90912CA12CB12C072E79E0C8
:10268000880C991CAA1CBB1C7A95D1F7702D41149B
:1026900051046104710409F43FC0B1E04B1A5108C0
:1026A00061087108C701B60161507109810991097A
:1026B000A50194010E94801B29833A834B835C838C
:1026C000C301B201A50194010E94801B89819A81F6
:1026D000AB81BC8182179307A407B507E8F0882770
:1026E0009927DC0188199909AA09BB0948225922AE
:1026F0006A227B22D10116964D925D926D927C9258
:102700001997C418D508E608F70852964D915D91BF
:102710006D917C91559738C0F10146855785608948
:102720007189411551056105710549F540E050E099
:10273000BA01C8010E94EC05AB01BC014130510552
:102740006105710549F4D10114968C911497806844
:1027500014968C9382E034C14F3FBFEF5B076B0749
:102760007B0731F4F10184818068848381E028C192
:10277000D1011E964D935D936D937C935197F1011A
:10278000428B538B648B758B411551056105710527
:1027900009F4A8C08C149D04AE04BF0408F062C004
:1027A000D10114968C91149781FF0CC08D919C914E
:1027B0000E94EC05AB01BC01411551056105710595
:1027C00041F44EC0F101808191810E94F603AB017A
:1027D000BC014F3FFFEF5F076F077F0749F4D1014F
:1027E00014968C911497806814968C9381E0E8C0BD
:1027F000423051056105710560F0D101ED91FC9108
:10280000828D938DA48DB58D481759076A077B0774
:1028100030F0F10184818068848382E0D1C0D101ED
:1028200052964D935D936D937C93559716968D912B
:102830009D910D90BC91A02D880D991DAA1DBB1DC9
:10284000F10186839783A087B187C818D908EA0861
:10285000FB088C149D04AE04BF0408F4A1CF02C091
:1028600075016401F10186819781A085B1858C0D88
:102870009D1DAE1DBF1D86839783A087B18746012E
:102880005701072E79E0B694A794979487947A9588
:10289000D1F7702D8582F1E0DF22EE24FF24CD28D0
:1028A000CE28CF2819F1D1018D919C910E948707E4
:1028B000611571058105910531F4F101848180680C
:1028C000848382E07DC06B017C01C80CD11CE11CBB
:1028D000F11C8394D10115968C920BC0C12CD12C84
:1028E000760107C0C12CD12C760103C0C12CD12C9C
:1028F0007601F10186819781A085B1859170AA2723
:10290000BB27892B8A2B8B2B09F440C0268937895A
:10291000408D518D2C153D054E055F05B9F1848123
:1029200086FF19C00190F081E02D01E0B101605EE9
:102930007F4F81810E948701882349F0D10114963D
:102940008C911497806814968C9381E039C0F101C2
:1029500084818F7B8483D101ED91FC9101E0A701FB
:102960009601B101605E7F4F81810E945D018823E5
:1029700031F0F10184818068848381E021C0D1013C
:102980005696CD92DD92ED92FC925997F101868197
:102990009781A085B18542855385648575854817E3
:1029A00059076A077B0758F482879387A487B587FE
:1029B00084818062848380E003C082E001C080E083
:1029C0000F900F900F900F90DF91CF911F910F916B
:1029D000FF90EF90DF90CF90BF90AF909F908F903F
:1029E0007F906F905F904F903F902F900895EF925F
:1029F000FF921F93CF93DF93CDB7DEB7A4970FB6A7
:102A0000F894DEBF0FBECDBF9CA38BA37B0140E03B
:102A1000BE016F5F7F4FCE0183960E94C80B182FB7
:102A2000811117C0CE0147969E8B8D8B6BA17CA127
:102A300046970E94B209182F81110BC08B899C897F
:102A4000892B31F0B701CE0101960E94E00101C04F
:102A500016E0812FA4960FB6F894DEBF0FBECDBF4F
:102A6000DF91CF911F91FF90EF900895579A5F9A51
:102A70005E9A85E08A95F1F700005F9885E08A9577
:102A8000F1F7000008955E9885E08A95F1F700005F
:102A90005F9885E08A95F1F700005E9A85E08A9557
:102AA000F1F700005F9A85E08A95F1F7000008953C
:102AB0005E9885E08A95F1F700005F9885E08A9539
:102AC000F1F700005E9A85E08A95F1F700005E98C4
:102AD00085E08A95F1F700005F9A08955E9885E099
:102AE0008A95F1F700005F9A85E08A95F1F700007A
:102AF0005E9A85E08A95F1F700005E9885E08A95F8
:102B0000F1F700005F9A0895579A5E9898E088233D
:102B100014F45F9A01C05F985E9A25E02A95F1F758
:102B20000000880F5E98915091F75F9A5E9A85E059
:102B30008A95F1F700005E9825E02A95F1F70000EC
:102B400008955F9A57985F9A98E080E0880F5E9AA0
:102B50004F9981605E9825E02A95F1F70000915029
:102B6000A9F7579A08959DEC899F912D1124969568
:102B70009695969520E1929FA0011124990F292FF7
:102B8000220F220F920F891B842B08950E94361565
:102B900080ED0E9484158EE00E94841580E00E94E2
:102BA00084158FE00E94841588E00E9484150E949D
:102BB00043150895CF93DF930E94361580ED0E9450
:102BC000841580E00E9484150E94361581ED0E94D4
:102BD00084150E94A115C3E2D1E08E830E9458158E
:102BE0000E94A1158D830E9458150E94A1158C8307
:102BF0000E9458150E94A1158B830E9458150E94AF
:102C0000A1158A830E9458150E94A11589830E94EC
:102C100058150E94A11588830E946E150E944315C5
:102C2000DF91CF9108950E94361580ED0E948415A2
:102C300081E10E9484150E94361581ED0E94841561
:102C40000E94A1158093EA030E9458150E94A115C5
:102C500082958695869583708093E9030E946E1510
:102C60000E94431508950E94DA15A3E2B1E08C9109
:102C7000E4E1F1E0982F92959F70905D92838F70C0
:102C8000805D838311968C911197982F92959F70F8
:102C9000905D96838F70805D878312968C911297DA
:102CA000982F92959F70905D92878F70805D83873B
:102CB00014968C911497EBE0F1E0982F92959F7009
:102CC000905D90838F70805D818315968C911597B0
:102CD000982F92959F70905D93838F70805D848311
:102CE00016968C91982F92959F70905D96838F7019
:102CF000805D87830E9413168091EA030E94B315BA
:102D0000E0E0F1E0982F92959F70905D90838F7036
:102D1000805D8183089598E04498882314F4419A53
:102D200001C04198449A880F9150B1F70895439893
:102D30004298862B0E948B16439A08954398429A94
:102D40000E948B16439A0895CF93DF9360E080E84A
:102D50000E94971660E080E40E949716C0ECD3E0D2
:102D600080E00E949E162197D9F760E080E80E94DB
:102D7000971660E080E40E949716DF91CF91089546
:102D800045988FE39CE90197F1F700C00000459A50
:102D90008FE39CE90197F1F700C0000061E080E259
:102DA0000E94971660E080E80E94971662E080E338
:102DB0000E94971660E080E20E94971664E088E027
:102DC0000E9497160E94A41608950F931F93CF9305
:102DD000DF93C62F8A01682F80E80E9497166C2F18
:102DE00080E40E949716C801880F991F880F991FC9
:102DF000080F191FE801C853D04003531040FE01CB
:102E000084910E949E162196C017D107C1F7DF91C9
:102E1000CF911F910F9108950F931F93CF93DF933D
:102E2000C82FD62FFA019081992379F08A010F5F7C
:102E30001F4F492F50E06D2F8C2F0E94E516CA5F5F
:102E4000F80191918F019111F4CFDF91CF911F91F2
:102E50000F9108952F923F924F925F926F927F92BF
:102E60008F929F92AF92BF92CF92DF92EF92FF929A
:102E70000F931F93CF93DF93CDB7DEB7C455D240E6
:102E80000FB6F894DEBF0FBECDBF569A8FEF87B94D
:102E90000E94C016198260E071EE80E090E00E940E
:102EA000551B0E94C6152FEF83ED90E32150804003
:102EB0009040E1F700C0000086E491E00E94711BA1
:102EC0006AEB71E080E00E94FA0E19824AE06FE43A
:102ED00071E0CE014F960E94100F882329F089815E
:102EE0008F5F8983853090F38981853029F48AE565
:102EF00091E00E94711BBCC0CE014F960E94E0126F
:102F000060E070E080E00E94FA0E512C0F2EF3E298
:102F10008F2EF1E09F2EF02D7E01E1E1EE0EF11CEF
:102F20000F2EFBE06F2EF1E07F2EF02D6E01F9E108
:102F3000CF0ED11C8E01015C1D4F302E412E5E0143
:102F40002EE1A20EB11C0E943316F4012680251436
:102F500009F484C080E28A83A4E1B1E0FE013396E3
:102F60008D918193EE15FF05D9F7D301F7018D916E
:102F70008193EC15FD05D9F788E0898380E2898F7C
:102F8000E0E0F1E080818A8F81818B8F8DE08C8FF2
:102F90008AE08D8F1E8ECE0102960E94711B1982CF
:102FA0006AEB71E080E00E94FA0E632D742D80E5DB
:102FB00091E00E94F71442E06FE471E0CE014F9679
:102FC0000E94100F582EF801408151816281738157
:102FD000CE014F960E94EC12511029C09E012F5F26
:102FE0003F4F4BE150E0BE016E5F7F4FCE014F96E9
:102FF0000E947610811106C047E651E067E084E147
:103000000E940C17CE014F960E94E01260E070E023
:1030100080E00E94FA0EA30164E084E10E940C1794
:1030200040E051E062E088E20E940C1706C089810E
:103030008F5F8983853008F4B3CF8981853029F487
:103040008AE591E00E94711B13C0FE013296119235
:10305000EA15FB05E1F78CE18983522CFFEF23ECA5
:1030600089E0F15020408040E1F700C000006BCFC4
:1030700080E090E0CC5ADD4F0FB6F894DEBF0FBE73
:10308000CDBFDF91CF911F910F91FF90EF90DF9017
:10309000CF90BF90AF909F908F907F906F905F90F8
:1030A0004F903F902F9008951CBC83E58CBD8DB54B
:1030B0008E7F8DBD08951CBC80E58CBD8DB5816073
:1030C0008DBD089585B1846185B984B1837C84B94F
:1030D00084B18C6284B908958EBD0DB407FEFDCF16
:1030E0008EB50895FF920F931F93CF93DF93F82E21
:1030F000C42FD52F162F072F2A9A8FEF0E946C18F6
:103100002A988F2D80640E946C18802F0E946C1862
:10311000812F0E946C188D2F0E946C188C2F0E949A
:103120006C1885E90E946C18C4E68FEF0E946C1839
:103130008F3F11F4C150C9F79091B901911102C0AC
:103140002A9A01C02A98DF91CF911F910F91FF9089
:1031500008950F931F93CF930E9462180E945418F2
:103160002A988FE99FE00197F1F700C00000CFEFA8
:103170008FEF0E946C18C150D9F72DC040E050E08D
:10318000BA0180E00E94721801501109B9F0813033
:10319000A9F718C040E050E0BA0181E00E9472181F
:1031A0000150110969F08111F5CF40E052E060E073
:1031B00070E080E10E9472182A9A16C0CFEF14C006
:1031C000CFEF12C040E050E0BA0181E00E947218D7
:1031D0000FEC17E0E8CF40E050E0BA0180E00E9439
:1031E00072180FEC17E0D3CF8C2FCF911F910F9156
:1031F0000895EF92FF920F931F93CF93DF93E82EE2
:10320000D42F152F062FF72EC22F8FEF0E946C1888
:103210002A988E2D80640E946C188F2D0E946C1845
:10322000802F0E946C18812F0E946C188D2F0E9495
:103230006C188C2F0E946C18C9EC02C0C15031F080
:103240008FEF0E946C18D82F8F3FC1F32A9A8FEF0F
:103250000E946C188D2FDF91CF911F910F91FF90DD
:10326000EF900895DF92EF92FF920F931F93CF9309
:10327000DF937C018B01D42E2A988FEF0E946C186B
:10328000C8ECD0E008C08FEF0E946C18219719F4A9
:103290002A9A81E01EC08E3FB1F70115110549F051
:1032A000E8018FEF0E946C18F70181937F0121974D
:1032B000C1F78FEF0E946C188FEF0E946C18F1E03D
:1032C000DF1206C02A9A8FEF0E946C1880E001C0BE
:1032D00080E0DF91CF911F910F91FF90EF90DF90F1
:1032E0000895CF92DF92EF92FF92CF93DF936B011D
:1032F0007C01EA010E945B18B701A601032E39E0A8
:10330000440F551F661F771F3A95D1F7302D20E0E7
:1033100081E10E94F918811106C041E060E072E08D
:10332000CE010E943219DF91CF91FF90EF90DF9094
:10333000CF900895CF92DF92EF92FF920F931F9359
:10334000CF936B017C018A01C22F0E945B18B701E9
:10335000A601032E39E0440F551F661F771F3A95CB
:10336000D1F7302D20E082E10E94F918811117C0B9
:1033700040E060E072E0C8010E943219811103C090
:103380001E5FC150A9F720E040E050E0BA018CE098
:103390000E94F9182A9A8FEF0E946C188C2FCF91F7
:1033A0001F910F91FF90EF90DF90CF900895CF92F3
:1033B000DF92EF92FF920F931F93CF93DF936B01F6
:1033C0007C018A010E945B188091B801843049F029
:1033D0000B2EB9E0CC0CDD1CEE1CFF1CBA95D1F70E
:1033E000B02D20E0B701A60188E10E94F9188111F3
:1033F00035C02A988FEF0E946C188FEF0E946C18CE
:103400008FEF0E946C188EEF0E946C18E8011E5F0F
:1034100089910E946C18C017D107D1F78FEF0E94D5
:103420006C188FEF0E946C188FEF0E946C18982F09
:103430009F71953039F02A9A11C0219729F42A9A60
:1034400081E00CC0CFEFDFEF8FEF0E946C18882374
:10345000A1F32A9A8FEF0E946C1880E0DF91CF9140
:103460001F910F91FF90EF90DF90CF9008958FEF15
:103470000E946C188F3FD9F780E008958F929F9239
:10348000AF92BF92DF92EF92FF920F931F93CF9371
:10349000DF934B015C017A01D22E0E945B18809170
:1034A000B801843059F0072E79E0880C991CAA1CC9
:1034B000BB1C7A95D1F7702D882341F04D2D50E03B
:1034C00060E070E020E087E10E94F91820E0B5019B
:1034D000A40189E10E94F918811141C02A988FEF57
:1034E0000E946C188FEF0E946C188FEF0E946C186E
:1034F0008CEF0E946C18E7018EEFF81A8701899112
:103500000E946C18C017D107D1F78FEF0E946C187A
:103510008FEF0E946C188FEF0E946C18982F9F718C
:10352000953011F02A9A1BC00E94371A813011F48D
:103530002A9A15C0DA94D110DBCF8DEF0E946C1857
:10354000811104C00F2EFEEFDF2EF02D0E94371ADE
:103550008111FFCF2A9A8FEF0E946C188D2DDF9179
:10356000CF911F910F91FF90EF90DF90BF90AF90A0
:103570009F908F9008950F931F93CF938C012FEFFF
:1035800040E050E0BA0189E00E94F918C82F81118B
:1035900006C041E060E170E0C8010E9432198C2F42
:1035A000CF911F910F910895CF93DF93CDB7DEB7E1
:1035B00060970FB6F894DEBF0FBECDBFCE01019667
:1035C0000E94BB1A811165C08981807C803419F505
:1035D0006A85862F90E0A0E0B0E0AC01BD014F5FAE
:1035E0005F4F6F4F7F4F898590E0A0E0B0E0BA2F2A
:1035F000A92F982F8827840F951FA61FB71FBC01DE
:10360000CD01052E5AE0660F771F881F991F5A9526
:10361000D1F7502D41C04F81437050E0542F4427C3
:103620008885480F511D440F551F440F551FA9850C
:10363000A295A695A695A370B0E011968A85837091
:10364000982F990F8B85881F8827881F8E5F890F79
:1036500039F021E030E0220F331F8150E1F702C042
:1036600021E030E0A40FB51F0E94A21B9B01AC011A
:103670008E818F7090E0009739F0A1E0B0E0AA0F42
:10368000BB1F0197E1F702C0A1E0B0E00E94B11BAF
:1036900003C060E070E0CB0160960FB6F894DEBF27
:1036A0000FBECDBFDF91CF9108959B01AC0160E4C7
:1036B00072E48FE090E00E94801B21502093C400B0
:1036C0001092C50088E18093C10086E08093C2001B
:1036D0000895E0ECF0E0908195FFFDCF8093C60067
:1036E0000895CF93DF93EC018881882331F02196F0
:1036F0000E94691B89918111FBCFDF91CF910895C1
:10370000A1E21A2EAA1BBB1BFD010DC0AA1FBB1FE5
:10371000EE1FFF1FA217B307E407F50720F0A21B57
:10372000B30BE40BF50B661F771F881F991F1A94C4
:1037300069F760957095809590959B01AC01BD01EE
:10374000CF010895A29FB001B39FC001A39F700D48
:10375000811D1124911DB29F700D811D1124911D99
:1037600008950E94A21BA59F900DB49F900DA49F49
:0C377000800D911D11240895F894FFCFE6
:10377C0032353B000000000000000030303A3030A1
:10378C003A30300032303030C4EA3030D4C23030CD
:10379C00C8D50016120407005500496E697469619A
:1037AC006C697A654661696C0D0A0020222A2B2C03
:1037BC005B3D5D7C7F005265616479210D0A002FB1
:1037CC0074657374312E747874006D6F756E74201B
:1037DC006572726F7221005772697465204F4B21AC
:1037EC00002F002F6F6C642F54455354322E747875
:1037FC0074004F4B0054686520665F7075747328B5
:10380C00292069732061207772617070657220665F
:10381C00756E6374696F6E206F6620665F70757469
:04382C000D0A000081
:00000001FF
